:100000000C945E060C94A5060C94A5060C94A5060B
:100010000C94A5060C94A5060C94A5060C94A506B4
:100020000C94A5060C94A5060C94770E0C94490F1D
:100030000C949F1D0C94A5060C94A5060C94A50683
:100040000C94A5060C94A5060C94A5060C94A50684
:100050000C94A5060C94131E0C94A5060C94A506EE
:100060000C94A5060C94A5060C94A5060C94A50664
:100070000C94A5060C94A5060C94A5060C94A50654
:100080000C94A5060C94A5060C94A5060C94A50644
:100090000C94A5060C94A5060C94A5060C94A50634
:1000A0000C94A5060C94A5060C94A506B60FD80FC3
:1000B000CB10D80FCB101D104010CB109510A810EE
:1000C000001400142E142E148B14C514C216C2165C
:1000D000DE14C216D315D3159616C216C216AD1667
:1000E000F1A1048AF1A3293A3B3C3D3E3F40414205
:1000F000434445C14C351E1F202122232425262799
:100100002D2E002A2B141A0815171C180C12132F49
:10011000300031E0041607090A0B0D0E0F333400CE
:100120002800E11D1B061905111036373800E500BF
:100130000000E3E200002C000000C0C2000000004C
:1001400001010101010101ACB0ABA8AAA9010101A3
:100150000101010101010101010101010001010190
:10016000010101010101464748520100010101015D
:1001700001010101014A4B504F0001000101010141
:10018000010101014D4E510001000000010100007C
:100190000100000001010000000001010101010156
:1001A0000101010101010101010113140E251F1BB1
:1001B0001704220D0101000101080F120C060B218A
:1001C00027180701010001010A1C151A2027112315
:1001D0001001010001000105091E1D161D24010169
:1001E0000100010000000101000001000000010108
:1001F00000000000010101010101010101010101F3
:1002000001010101010101010101010101010101DE
:10021000000101F401F501010101010101F00100FA
:100220000101010101010101010101F2F3000100DD
:1002300001010101010101010101F10001000000C2
:1002400001010000010000000101000000000A009F
:100250002530313662003A200025303258000A72CB
:100260002F63203031323334353637383941424309
:100270004445460A000A002530325800626F756E08
:100280006365213A20005B735D004B6579626F61A5
:1002900072642073746172742E0A00555342206395
:1002A0006F6E666967757265642E0A005B575D0044
:1002B0005B535D005B525D005B445D005B435D0032
:1002C000180342006C0075006E0074005700650052
:1002D000610070006F006E0000000E0350006500AA
:1002E0006B00610073006F00000004030904090241
:1002F0008D00050100A03209040000010301010086
:100300000921110100012240000705810308000AAC
:100310000904010001030102000921110100012269
:100320004D000705820308000A09040200010300CA
:10033000000009211101000122360007058303088E
:10034000000A090403000203000000092111010052
:100350000122220007058403200001070504032071
:10036000000109040400010300000009211101003B
:100370000122390007058503100001120110010058
:10038000000008EDFE6060010001020001050109A6
:1003900006A101050719E029E71500250195087553
:1003A000018102050819012905950575019102953C
:1003B000017503910105071900297715002501959D
:1003C0007875018102C00631FF0974A10109751514
:1003D0000026FF009520750881020976150026FF8A
:1003E00000952075089102C005010980A1018502D0
:1003F00016010026B7001A01002AB70075109501F2
:100400008100C0050C0901A1018503160100269C8D
:10041000021A01002A9C02751095018100C0050195
:100420000902A1010901A100050919012905150009
:10043000250195057501810295017503810105016D
:10044000093009311581257F950275088106093823
:100450001581257F950175088106050C0A3802155E
:1004600081257F950175088106C0C005010906A197
:1004700001050719E029E715002501950875018197
:100480000295017508810105081901290595057571
:100490000191029501750391010507190029FF15C6
:1004A0000026FF00950675088100C00A002530323D
:1004B0005820006B6579626F6172645F7265706F5E
:1004C00072743A20004C45443A20253032580A00D4
:1004D00064656C5F6B65795F6269743A2063616E15
:1004E00027742064656C3A20253032580A00616414
:1004F000645F6B65795F6269743A2063616E27742B
:10050000206164643A20253032580A00646F6E65B9
:100510002E0A00626F6F746D616769632073636197
:100520006E3A202E2E2E2000290A002575002F005D
:100530002575005D2800256400200025640020004A
:1005400025640020002564007C0025303258006DB1
:100550006F7573656B6579205B62746E7C7820794A
:10056000207620685D287265702F61636C293A20BF
:100570005B006D6B5F776865656C5F74696D655F67
:10058000746F5F6D6178203D2025640A006D6B5F9C
:10059000776865656C5F6D61785F73706565642011
:1005A0003D2025640A006D6B5F74696D655F746F33
:1005B0005F6D6178203D2025640A006D6B5F6D6181
:1005C000785F7370656564203D2025640A006D6B5B
:1005D0005F696E74657276616C203D2025640A0047
:1005E0006D6B5F64656C6179203D2025640A006D48
:1005F0006B5F776865656C5F74696D655F746F5F6D
:100600006D6178203D2025640A006D6B5F77686519
:10061000656C5F6D61785F7370656564203D202552
:10062000640A006D6B5F74696D655F746F5F6D6107
:1006300078203D2025640A006D6B5F6D61785F73E3
:1006400070656564203D2025640A006D6B5F696EEE
:1006500074657276616C203D2025640A006D6B5FC5
:1006600064656C6179203D2025640A000A002575C7
:1006700000363A20776865656C5F74696D655F74F4
:100680006F5F6D61783A20000A00257500353A20C9
:10069000776865656C5F6D61785F73706565643AF6
:1006A00020000A00257500343A2074696D655F7476
:1006B0006F5F6D61783A20000A00257500333A209B
:1006C0006D61785F73706565643A20000A00257576
:1006D00000323A20696E74657276616C286D7329F8
:1006E0003A20000A00257500313A2064656C617972
:1006F000282A31306D73293A20000A092D205661CD
:100700006C756573202D0A004D3E004D25643E201A
:10071000003F007365742064656661756C740A003F
:10072000433E200077686572652064656C74613AA9
:1007300020637572736F723D25642C207768656540
:100740006C3D25640A53656520687474703A2F2FD8
:10075000656E2E77696B6970656469612E6F72676B
:100760002F77696B692F4D6F7573655F6B65797353
:100770000A000A092D204D6F7573656B6579202D70
:100780000A4553432F713A09717569740A313A0960
:1007900064656C6179282A31306D73290A323A090F
:1007A000696E74657276616C286D73290A333A0933
:1007B0006D61785F73706565640A343A0974696DB8
:1007C000655F746F5F6D61780A353A0977686565B2
:1007D0006C5F6D61785F73706565640A363A09779E
:1007E0006865656C5F74696D655F746F5F6D617876
:1007F0000A0A703A097072696E742076616C7565C8
:10080000730A643A097365742064656661756C7473
:10081000730A75703A092B310A646F776E3A092DA5
:10082000310A706775703A092B31300A7067646F4E
:10083000776E3A092D31300A0A7370656564203D80
:100840002064656C7461202A206D61785F73706527
:100850006564202A2028726570656174202F2074D9
:10086000696D655F746F5F6D6178290A003F004DA7
:100870003E2000433E20004C25640A000A092D203A
:10088000436F6E736F6C65202D0A4553432F713A89
:1008900009717569740A6D3A096D6F7573656B65D9
:1008A000790A000A092D204D61676963202D0A64C9
:1008B0003A0964656275670A783A09646562756722
:1008C000206D61747269780A6B3A096465627567B4
:1008D000206B6579626F6172640A6D3A09646562C2
:1008E0007567206D6F7573650A763A097665727360
:1008F000696F6E0A733A097374617475730A633AA7
:1009000009636F6E736F6C65206D6F64650A302DBF
:10091000343A096C61796572302D34284631302DB6
:100920004634290A506175733A09626F6F746C6FAF
:10093000616465720A653A09656570726F6D0A6E69
:100940003A094E4B524F0A000A002575002E6E6B75
:10095000726F3A20000A002575002E737761705F70
:100960006261636B736C6173685F6261636B737008
:100970006163653A20000A002575002E7377617067
:100980005F67726176655F6573633A20000A0025D0
:1009900075002E6E6F5F6775693A20000A00257535
:1009A000002E737761705F72616C745F7267756936
:1009B0003A20000A002575002E737761705F6C6124
:1009C0006C745F6C6775693A20000A002575002E0B
:1009D000636170736C6F636B5F746F5F636F6E7472
:1009E000726F6C3A20000A002575002E73776170D3
:1009F0005F636F6E74726F6C5F636170736C6F6353
:100A00006B3A20000A0025303258006B65796D6121
:100A1000705F636F6E6669672E7261773A20000AB5
:100A2000002575002E6D6F7573653A20000A00254C
:100A300075002E6B6579626F6172643A20000A005E
:100A40002575002E6D61747269783A20000A0025C0
:100A500075002E656E61626C653A20000A002530D3
:100A600032580064656275675F636F6E6669672EF2
:100A70007261773A20000A00257500646566617529
:100A80006C745F6C617965723A20003F004E4B5286
:100A90004F3A206F66660A004E4B524F3A206F6EF7
:100AA0000A0074696D65725F72656164333228296A
:100AB0003A202530346C580A006B6579626F617298
:100AC000645F6E6B726F3A2025580A006B6579621D
:100AD0006F6172645F69646C653A2025580A006B27
:100AE0006579626F6172645F70726F746F636F6C4F
:100AF0003A2025580A00686F73745F6B6579626FDE
:100B00006172645F6C65647328293A2025580A0075
:100B10000A092D20537461747573202D0A00474310
:100B2000433A20352E332E30204156522D4C494227
:100B3000433A20322E302E30204156525F415243EC
:100B4000483A20617672350A004F5054494F4E534F
:100B50003A204C55464120424F4F544D414749435E
:100B6000204D4F5553454B45592045585452414B04
:100B7000455920434F4E534F4C4520434F4D4D4117
:100B80004E44204E4B524F20343039360A004255E5
:100B9000494C443A20396239386132342D646972E3
:100BA0007479202830303A32303A3034204A756C2B
:100BB0002031382032303136290A005649443A2053
:100BC0003078464545442850656B61736F29205045
:100BD00049443A2030783630363028426C756E748D
:100BE000576561706F6E29205645523A2030783033
:100BF0003030310A00444553433A20742E6D2E6B39
:100C00002E206B6579626F617264206669726D7700
:100C100061726520666F722050656B61736F0A00A8
:100C20000A092D2056657273696F6E202D0A000A1D
:100C30006D6F7573653A206F66660A000A6D6F7591
:100C400073653A206F6E0A000A6B6579626F617294
:100C5000643A206F66660A000A6B6579626F61729A
:100C6000643A206F6E0A000A6D61747269783A20E6
:100C70006F66660A000A6D61747269783A206F6E59
:100C80000A000A64656275673A206F6E0A000A649A
:100C9000656275673A206F66660A000A0A626F6FBE
:100CA000746C6F616465722E2E2E2000433E20000E
:100CB0006565636F6E6669673A0A000011241FBE9E
:100CC000CFEFDAE0DEBFCDBF04B603FE27C08091D0
:100CD000EC019091ED01A091EE01B091EF01873010
:100CE000904BA740B04BD1F41092EC011092ED0163
:100CF0001092EE011092EF0114BE84B7877F84BF7B
:100D00000FB6F894A8958091600088618093600088
:100D1000109260000FBEE0E0F8E3099511E0A0E05A
:100D2000B1E0ECECF5E502C005900D92A833B107F7
:100D3000D9F721E0A8E3B1E001C01D92AC3EB207B3
:100D4000E1F70E94AC0B0C94E42A0C940000FF9392
:100D5000EF93E0913801F0913901309709F009954E
:100D6000EF91FF910895FC018591803011F0EFDF44
:100D7000FBCF0895FF27E0E230E247FF0CC041952A
:100D800097FF09C0EDE26095709580959095611D83
:100D9000711D811D911D27FF02C0219530E350E296
:100DA000AA27660F771F881F991FAA1FA41710F084
:100DB000A41B63955A95A9F7AA3008F0A95FA05D16
:100DC000AF93F395611571058105910541F7ED32FA
:100DD00011F4EF93F395F21718F43F93F395FBCFCB
:100DE0008F91B5DFFA95E1F70895E991F991859131
:100DF000803021F0853219F0AADFF9CF089520E084
:100E0000E89455915532C1F3503311F468945591DB
:100E10005A3348F4505390F3220F022E220F220F20
:100E2000200D250FF4CF0EF4219589919991533619
:100E300019F3533729F1533559F1BC018827992704
:100E4000E8945C3621F489919991689455915436CF
:100E500039F446EF7EF077FF0DC08FEF9FEF0AC0A9
:100E600055374AE039F0583540E121F0523642E03A
:100E700009F00895FF93EF937DDFEF91FF91B7CFD6
:100E8000FF93EF93FC0181918030B9F360DFFBCFDA
:100E9000FF93EF9368DFF1CFDF93CF93CDB7DEB74A
:100EA0002596A3DFCF91DF9108952AE5829FC001A7
:100EB0001124FC012FE0729FE00DF11D1124E60FBB
:100EC000F11DEA51FF4F84910895E82FF0E0EE0FF5
:100ED000FF1FE05AF04085919491089580B38C7083
:100EE00080BB81B38C7081BB08950E946E0784B172
:100EF000817084B985B18E6F85B98AB180738AB9E2
:100F00008BB18F6C8BB987B18F7387B988B1806CC7
:100F100088B9E6E4F1E0AAE3B1E0119211921D92E2
:100F20001D9281E0E235F807C1F70895AF92BF92B4
:100F3000CF92DF92EF92FF920F931F93CF93DF93A5
:100F4000AAE3AA2EA1E0BA2EE50110E001E0B7E77E
:100F5000CB2EB2E0DB2E133099F028F4113051F093
:100F6000123059F004C0143071F0153079F0809AC5
:100F700088980EC0819A89980BC0849A8C9808C072
:100F8000859A8D9805C0869A8E9802C0879A8F9808
:100F900080EA8A95F1F783B182958695869583706C
:100FA000802780FBEE24E0F8F12C1D9903C082E03D
:100FB00090E002C080E090E09701282B392B1C992B
:100FC00003C084E090E002C080E090E0822B932B8D
:100FD00049B1042E000C550B409550959A012227DB
:100FE000330F221F3327F3E0220F331FFA95E1F767
:100FF000282B392B4E9903C080E190E002C080E09D
:1010000090E0A901482B592B26B1022E000C330B7E
:1010100020953095C9018827990F881F992775E079
:10102000880F991F7A95E1F7842B952B369903C089
:1010300020E430E002C020E030E0822B932B4B997B
:1010400003C020E830E002C020E030E0822B932B88
:101050004A9903C0E0E0F1E002C0E0E0F0E08E2B4E
:101060009F2B499903C060E072E002C060E070E02D
:10107000862B972B489903C020E034E002C020E083
:1010800030E0AC01422B532B23B1022E000C330B6A
:1010900020953095C9018827990F881F9927982F87
:1010A0008827990F990F990F842B952B1B9903C0B3
:1010B00020E030E102C020E030E0822B932B1A992F
:1010C00003C020E030E202C020E030E0822B932B0E
:1010D000199903C020E030E402C020E030E0822B08
:1010E000932B288139812817390749F199838883FF
:1010F00080910001882301F18091CD0180FF04C01F
:101100008CE792E00E94B3068091CD0180FF0CC075
:10111000809100011F928F93DF92CF920E944C0723
:101120000F900F900F900F908091CD0180FF04C021
:1011300085E792E00E94B30685E0809300010E945B
:101140006E071F5F2296163009F005CF80910001CF
:101150008823C9F0815080930001882339F0AFE9DA
:10116000BFE01197F1F700C000000DC0E6E4F1E028
:10117000D5018D919D915D0181939193B6E4AB165C
:10118000B1E0BB06A9F781E0DF91CF911F910F91EC
:10119000FF90EF90DF90CF90BF90AF900895E82F31
:1011A000F0E0EE0FFF1FEA5BFE4F80819181089512
:1011B000CF92DF92EF92FF920F931F93CF93DF9323
:1011C0008EE592E00E94B30686E4E82E81E0F82ED8
:1011D000C0E0D0E099E5C92E92E0D92E00E512E0FA
:1011E000DF93CF93DF92CF920E944C0786E592E087
:1011F0000E94B306F701819191917F010E942D1DFC
:101200009F938F931F930F930E944C078EE492E05D
:101210000E94B30621968DB79EB708960FB6F89434
:101220009EBF0FBE8DBFC630D105D1F6DF91CF91E5
:101230001F910F91FF90EF90DF90CF900895209A2B
:1012400062FF02C028980895289A08950895809111
:10125000650108959FB7F894109254019FBF909133
:10126000E201943009F057C09091E9009F703091ED
:10127000EC00232F217030FD20E8922B24E02093F6
:10128000E9002091EB0020FF43C02091EE0027FFF2
:101290003FC020915201222321F02091E80025FF38
:1012A00037C01092520126E03091E80035FD15C09C
:1012B0003091E201343061F53091EB0035FD28C00A
:1012C000215021F481E08093520122C0EFE9FFE038
:1012D0003197F1F700C00000E7CF8093F1008091D3
:1012E000E80085FD0AC08091E80080FFFCCF809176
:1012F000E8008E778093E80006C08FB7F89421E06D
:10130000209354018FBF9F709093E90080E008956F
:101310009F709093E9008FEF0895CF93DF9300D0F3
:101320001F92CDB7DEB79C018091E201843019F5A0
:1013300093E099833B832A839093E9008FEF909108
:10134000E800815095FD06C095ED9A95F1F70000F3
:101350008111F5CF8091E80085FF0DC040E050E09D
:1013600063E070E0CE0101960E946B0C8091E80072
:101370008E778093E8000F900F900F90DF91CF91C0
:101380000895CF93DF9300D01F92CDB7DEB72091A1
:10139000E201243021F522E029839B838A8383E0C4
:1013A0008093E9008FEF9091E800815095FD06C091
:1013B00095ED9A95F1F700008111F5CF8091E80045
:1013C00085FF0DC040E050E063E070E0CE01019683
:1013D0000E946B0C8091E8008E778093E8000F905C
:1013E0000F900F90DF91CF9108959C018091E201C1
:1013F0008430F9F482E08093E9009FEF8091E80067
:10140000915085FD06C085ED8A95F1F70000911198
:10141000F5CF8091E80085FF0CC040E050E065E02A
:1014200070E0C9010E946B0C8091E8008E77809378
:10143000E8000895CF93DF93EC018091E2018430BE
:1014400009F047C080910B018823E1F080910C01E5
:101450008823C1F085E08093E9008FEF9091E80048
:10146000815095FD06C095E19A95F1F70000811134
:10147000F5CF8091E80085FF2CC040E050E060E1AE
:1014800070E017C081E08093E9008FEF9091E80051
:10149000815095FD06C095ED9A95F1F700008111F8
:1014A000F5CF8091E80085FF14C040E050E068E08F
:1014B00070E0CE010E946B0C8091E8008E778093E3
:1014C000E80080E1FE01A5E5B1E001900D928A956A
:1014D000E1F7DF91CF9108958CEB92E00E94B30683
:1014E0008091E101811109C00E94FC0D0E94590EFA
:1014F0008091E20084608093E200089588EB92E09E
:101500000E94B3061092E101089584EB92E00C94DE
:10151000B306209153012F5F822F62E30E94792A44
:10152000992319F02093530108951092530180914B
:101530005401882371F18091E201843041F580915A
:10154000E9008F702091EC00922F917020FD90E8BF
:10155000892B94E09093E9009091EB0090FF14C0E8
:101560009091EE0097FF10C09091E80095FF03C0A6
:101570001092F100F9CF9091E80090FF05C0909192
:10158000E8009E779093E8008F708093E9001092B6
:101590005401089542E061EC81E00E94750D42E043
:1015A00061EC82E00E94750D42E061EC83E00E94F4
:1015B000750D42E261EC84E00E94750D42E161EC40
:1015C00085E00C94750D8091E401833009F455C0D9
:1015D00030F4813071F0823009F48EC008958A3081
:1015E00009F47AC08B3009F460C0893009F09CC0DE
:1015F00020C08091E301813A09F096C08091E80013
:10160000877F8093E8008091E7019091E801892B22
:1016100021F460E185E591E003C060E080E090E0C6
:1016200070E00E94B60C8091E8008B778093E80010
:1016300008958091E301813209F076C08091E7013D
:101640009091E801009719F0049709F06DC080911E
:10165000E800877F8093E8008091E80082FD05C064
:101660008091E2018111F8CF5FC08091F1008093F9
:1016700065018091E8008B7753C08091E301813A46
:1016800009F052C08091E7019091E801892B09F09F
:101690004BC08091E800877F8093E8008091E8004C
:1016A00080FFFCCF80910B0136C08091E301813235
:1016B000D9F58091E7019091E801892BA9F58091F6
:1016C000E800877F8093E8000E94AA0D8091E501E1
:1016D00080930B010C94E4168091E301813221F593
:1016E0008091E800877F8093E8000E94AA0D809196
:1016F000E6018093660108958091E301813AA1F4A7
:101700008091E800877F8093E8008091E80080FF67
:10171000FCCF809166018093F1008091E8008E7784
:101720008093E8000C94AA0D089508950C94950BED
:101730000C94950B80EB92E00E94B3060C94950BF1
:101740000E945C1D8091E001882329F00E94881D81
:1017500081110C94550C089584B7877F84BF0FB610
:10176000F894A89580916000886180936000109241
:1017700060000FBE90E080E80FB6F894809361009F
:10178000909361000FBE0E94980B0E9474110E94FA
:10179000FC0D0E94590E8091E20084608093E2006B
:1017A0008AE299E00E94161D78948091E2018430CB
:1017B000E1F78BE992E00E94B3060E94761181E086
:1017C00091E00E94E3108AE892E00E94B3060E9432
:1017D000960B8091E201853039F486E892E00E9410
:1017E000B3060E94A00BF5CF0E947C11F2CF0C949F
:1017F0009D1D8CEA92E00E94B3060C94F70B292FF2
:10180000332723303105C9F060F42130310581F0F0
:101810002230310509F041C08DE890E02EEE32E033
:1018200040C021323105E1F02232310531F135C0BD
:1018300082E190E02BE733E034C0992781309105B5
:1018400049F028F0029749F5E0ECF2E005C0EAEE35
:10185000F2E002C0EAEDF2E0849190E09F0121C045
:101860006530D8F4E62FF0E0EE0FFF1FEC5DFE4F81
:101870002081318189E090E014C0653070F470E01F
:10188000FB01EE0FFF1FE65EFE4F20813181FB0161
:10189000EB5EFE4F808190E004C080E090E020E0AD
:1018A00030E0FA0131832083089580E189BD82E12F
:1018B00089BD09B400FEFDCF8091D8008F7D809353
:1018C000D8008091E00082608093E0008091E00089
:1018D00081FDFCCF0895CF92DF92EF92FF920F939C
:1018E0001F93CF93DF93EC018B016A010E94C90D16
:1018F000811133C0C114D10439F0F6018081918186
:10190000081B190BC80FD91FE12CF12C011511056B
:1019100019F18091E80085FD16C08091E8008E776E
:101920008093E800C114D10449F0F60180819181CF
:10193000E80EF91EF182E08285E00FC00E94C90D19
:10194000882321F30AC089918093F1000150110985
:10195000FFEFEF1AFF0ADACF80E0DF91CF911F91FE
:101960000F91FF90EF90DF90CF9008952091E901C3
:101970003091EA012617370748F06115710539F4EF
:101980002091E8002E772093E80001C0B901FC0106
:1019900020E06115710579F18091E2018823F1F170
:1019A0008530F1F18091E80083FD3CC08091E80032
:1019B00082FD2EC08091E80080FFEBCF2091F300E4
:1019C0008091F20090E0922B6115710551F0883002
:1019D000910538F421912093F1006150710901962D
:1019E000F3CF21E0089709F020E08091E8008E779E
:1019F0008093E800CECF2111CFCF0AC08091E201C1
:101A0000882361F0853061F08091E80083FD0AC091
:101A10008091E80082FFF2CF80E0089582E008958F
:101A200083E0089581E008952091E9013091EA0171
:101A30002617370748F06115710539F42091E80041
:101A40002E772093E80001C0B901FC0120E0611568
:101A5000710591F18091E201882309F440C085303D
:101A600009F43FC08091E80083FD3DC08091E8000B
:101A700082FD2FC08091E80080FFE9CF2091F30024
:101A80008091F20090E0922B6115710559F0883039
:101A9000910540F424912093F10031966150710931
:101AA0000196F2CF21E0089709F020E08091E8004C
:101AB0008E778093E800CBCF2111CCCF0AC08091E4
:101AC000E201882361F0853061F08091E80083FDB8
:101AD0000AC08091E80082FFF2CF80E0089582E0A2
:101AE000089583E0089581E00895982F973068F570
:101AF0009093E900981739F07091EC002091ED0077
:101B00005091F00003C0242F762F50E021FD02C039
:101B10009F5FECCF3091EB003E7F3093EB00309134
:101B2000ED003D7F3093ED003091EB00316030935C
:101B3000EB007093EC002093ED005093F0002091A7
:101B4000EE0027FDE5CF80E008958F708093E900D7
:101B500081E008958091E30187FF11C08091E80042
:101B600082FD05C08091E2018111F8CF11C0809102
:101B7000E8008B770BC08091E201882349F08091C7
:101B8000E80080FFF8CF8091E8008E778093E8002E
:101B900008952091E4003091E50095E64091EC0035
:101BA000842F817040FF23C08091E80080FD1DC01C
:101BB0008091E201882399F0853099F08091EB00C3
:101BC00085FD11C04091E4005091E50024173507D0
:101BD00029F3915011F09A01E1CF84E0089582E059
:101BE000089583E0089581E0089580E0089540918C
:101BF000E80042FFDDCF08950E946A0E0E94720E37
:101C0000E0EEF0E0808181608083E8EDF0E08081AB
:101C10008F77808319BCA7EDB0E08C918E7F8C9379
:101C200080818F7E80831092E10108950F931F932E
:101C3000CF93DF930E946A0E0E94720EC8EDD0E02F
:101C400088818F77888388818068888388818F7D69
:101C5000888319BC1092E2011092DE011092E0011B
:101C60001092DF0100EE10E0F80180818B7F80830D
:101C700088818160888342E060E080E00E94750D89
:101C8000E1EEF0E080818E7F8083E2EEF0E0808103
:101C900081608083808188608083F80180818E7F6D
:101CA0008083888180618883DF91CF911F910F911C
:101CB0000895E8EDF0E080818F7E8083E7EDF0E02D
:101CC00080818160808384E082BF81E08093E10134
:101CD0000C94160EE8EDF0E080818E7F80831092E8
:101CE000E20008951092DA001092E10008951F9228
:101CF0000F920FB60F9211242F933F934F935F9340
:101D00006F937F938F939F93AF93BF93EF93FF93C3
:101D10008091E10082FF0BC08091E20082FF07C04A
:101D20008091E1008B7F8093E1000E94890A80917D
:101D3000DA0080FF1FC08091D80080FF1BC0809117
:101D4000DA008E7F8093DA008091D90080FF0DC089
:101D500080E189BD82E189BD09B400FEFDCF81E04B
:101D60008093E2010E946C0A05C019BC1092E20146
:101D70000E947E0A8091E10080FF19C08091E200FC
:101D800080FF15C08091E2008E7F8093E2008091F9
:101D9000E20080618093E2008091D80080628093AD
:101DA000D80019BC85E08093E2010E949A0B8091D3
:101DB000E10084FF30C08091E20084FF2CC080E10C
:101DC00089BD82E189BD09B400FEFDCF8091D800B4
:101DD0008F7D8093D8008091E1008F7E8093E10019
:101DE0008091E2008F7E8093E2008091E20081602A
:101DF0008093E2008091DE01882311F084E007C027
:101E00008091E30087FD02C081E001C083E0809300
:101E1000E2010E94F90B8091E10083FF29C08091CB
:101E2000E20083FF25C08091E100877F8093E1007D
:101E300082E08093E2011092DE018091E1008E7FCA
:101E40008093E1008091E2008E7F8093E200809198
:101E5000E20080618093E20042E060E080E00E9466
:101E6000750D8091F00088608093F0000E94850AD3
:101E7000FF91EF91BF91AF919F918F917F916F9162
:101E80005F914F913F912F910F900FBE0F901F9038
:101E900018951F920F920FB60F9211242F933F9314
:101EA0004F935F936F937F938F939F93AF93BF9362
:101EB000CF93DF93EF93FF93C091E900CF708091B0
:101EC000EC00D82FD17080FDD0E81092E90080910D
:101ED000F000877F8093F00078940E948D0F10921D
:101EE000E9008091F00088608093F000CD2BCF70E6
:101EF000C093E900FF91EF91DF91CF91BF91AF9136
:101F00009F918F917F916F915F914F913F912F9111
:101F10000F900FBE0F901F9018951F93CF93DF93D4
:101F2000CDB7DEB7AA970FB6F894DEBF0FBECDBF10
:101F3000E3EEF1E08091F100819321E0EB3EF207C6
:101F4000C9F70E94E30A8091E80083FF24C18091D1
:101F5000E3019091E401492F50E04A30510508F027
:101F60001AC1FA01EA5AFF4F0C94992A803881F07D
:101F7000823809F010C18091E7018F708093E900E9
:101F80008091EB0085FB882780F91092E90006C05C
:101F90008091DF019091E001911182609091E800C1
:101FA000977F9093E8008093F1001092F100C8C0F1
:101FB000282F2D7F09F0EFC0882319F0823061F0BF
:101FC000EAC08091E501813009F0E5C0933009F065
:101FD00080E08093E0012BC08091E501811127C052
:101FE0008091E7018F7009F4D6C08093E9002091B9
:101FF000EB0020FF1CC0933021F48091EB00806245
:1020000014C09091EB0090619093EB0021E030E0E0
:10201000A90102C0440F551F8A95E2F74093EA00D8
:102020001092EA008091EB0088608093EB001092A0
:10203000E9008091E800877F86C08111ACC01091D3
:10204000E5011F778091E3008078812B8093E30086
:102050008091E800877F8093E8000E94AA0D80911C
:10206000E80080FFFCCF8091E30080688093E3006C
:10207000111102C082E001C083E08093E2018BC0B5
:102080008058823008F087C08091E5019091E60188
:102090008C3D53E0950779F583E08A838AE2898352
:1020A0004FB7F894DE01139620E03EE051E2E32FB3
:1020B000F0E050935700E49120FF03C0E295EF70E9
:1020C0003F5FEF708E2F90E0EA3010F0C79601C0AE
:1020D000C0968D939D932F5F243149F74FBF809118
:1020E000E800877F8093E8006AE270E0CE01019605
:1020F0000E94B60C14C0AE014F5F5F4F6091E701C4
:102100000E94FF0BBC01892B09F445C09091E800A7
:10211000977F9093E80089819A810E94140D8091A5
:10212000E8008B778093E80036C08038A1F5809175
:10213000E800877F8093E8008091DE018093F100C2
:102140008091E8008E778093E8000E94AA0D23C05A
:10215000811121C08091E5019091E60199270297B4
:10216000D4F48091E800877F8093E8008091E501B6
:102170008093DE010E94AA0D8091DE01811106C0CC
:102180008091E30087FD02C081E001C084E080937C
:10219000E2010E94CA0A8091E80083FF0AC0809190
:1021A000E800877F8093E8008091EB008062809355
:1021B000EB00AA960FB6F894DEBF0FBECDBFDF913D
:1021C000CF911F91089590936C0180936B010895B6
:1021D000E0916B01F0916C01309721F00190F0815A
:1021E000E02D099480E00895EF92FF921F93CF9322
:1021F000DF93F82E192FE0916B01F0916C0130976D
:10220000A9F10280F381E02D09958091CD0182FF33
:102210002DC080FF04C083EB94E00E94B306CF2D55
:10222000D12F10E18DEAE82E84E0F82E8091CD01C7
:1022300080FF0BC088811F928F93FF92EF920E94C4
:102240004C070F900F900F900F9011502196111185
:10225000EDCF8091CD0180FF09C08BEA94E0DF9142
:10226000CF911F91FF90EF900C94B306DF91CF9127
:102270001F91FF90EF900895E0916B01F0916C0138
:10228000309721F00480F581E02D09940895209184
:10229000690130916A012817390771F090936A013A
:1022A00080936901E0916B01F0916C01309721F00E
:1022B0000680F781E02D09940895209167013091FF
:1022C00068012817390771F09093680180936701BE
:1022D000E0916B01F0916C01309721F00084F18561
:1022E000E02D0994089508950C9473110E94C81D5F
:1022F0000E9475070C94E91F5F926F927F928F92F4
:102300009F92AF92BF92CF92DF92EF92FF920F9384
:102310001F93CF93DF9300D000D01F92CDB7DEB7CD
:102320000E9496079EE6C92E91E0D92E00E010E0AB
:10233000AA24A394B12C502E802F0E94CF084C01C8
:10234000F601619071906F0168267926611471041D
:10235000B1F40F5F1F4F0630110569F78FEF8983C6
:102360008A831B820E94D11D8160782F9D838C837C
:1023700049815A816B818D810E94501241C08091A8
:10238000CD0181FD0E94D80820E030E07501022EC9
:1023900002C0EE0CFF1C0A94E2F7C3018E219F21BC
:1023A000892B41F129835A828E209F2091E0892830
:1023B00009F490E09B830E94D11D8160782F9D835A
:1023C0008C8349815A816B818D810E945012498191
:1023D0005A816B817C818D810E94481D000F111FE5
:1023E000F801E259FE4F80819181E826F926F182B9
:1023F000E08206C02F5F3F4F2F30310539F6A9CF5D
:102400000E94471D0E9473230E94E81090916D0165
:10241000891771F10E94E81080936D019091CD01B0
:1024200092FF0EC090FF0CC01F928F9385EC94E03A
:102430009F938F930E944C070F900F900F900F90D7
:1024400080916D010F900F900F900F900F90DF9182
:10245000CF911F910F91FF90EF90DF90CF90BF90A1
:10246000AF909F908F907F906F905F900C94591DCC
:102470000F900F900F900F900F90DF91CF911F91C1
:102480000F91FF90EF90DF90CF90BF90AF909F9013
:102490008F907F906F905F90089590E00C94260944
:1024A000CF93DF93CDB7DEB72B970FB6F894DEBF8F
:1024B0000FBECDBF4F83588769877A878B878A8500
:1024C0009B85892B29F0CA019F3F09F54F3FF9F4FD
:1024D000DE01119686E0FD0111928A95E9F785E00B
:1024E000FE01379601900D928A95E1F749815A8154
:1024F0006B817C818D819E810E9478192B960FB60D
:10250000F894DEBF0FBECDBFDF91CF9108954F810C
:10251000588569857A858B850E94481DD9CFCF93D0
:10252000C82F882309F4CCC0823859F40E94E810DF
:1025300081FDC6C089E30E94101C0E94F01C89E343
:102540000CC0833879F40E94E81080FDB9C083E59F
:102550000E94101C0E94F01C83E50E94601CCF9119
:102560000C94F01C843859F40E94E81082FDA8C035
:1025700087E40E94101C0E94F01C87E4EECF8CEFD1
:102580008C0F813A48F48C2F0E94F327811198C058
:102590008C2F0E94101CE3CF80E28C0F883048F40F
:1025A000C77081E001C0880FCA95EAF70E94B61C87
:1025B000D6CF8BE58C0F833078F4C53A29F0C63A34
:1025C00031F083E890E005C081E890E002C082E845
:1025D00090E0CF910C94471188E58C0F853108F07D
:1025E0006FC0C83A61F1C93A69F1CA3A71F1CB3AA0
:1025F00079F1CC3A81F1CD3A89F1CE3A91F1CF3AE5
:1026000099F1C13BA1F1C03BA9F1C23BB1F1C33B80
:10261000B9F1C43BC1F1C53BC9F1C63BD1F1C73BE0
:10262000D9F1C83BE1F1C93BE9F1CA3BF1F1CB3B40
:10263000F9F1CC3B09F43FC080E090E03EC082EE6F
:1026400090E03BC089EE90E038C08AEE90E035C063
:1026500085EB90E032C086EB90E02FC083EB90E0FA
:102660002CC084EB90E029C087EB90E026C08CEC76
:1026700090E023C08DEC90E020C083E891E01DC085
:102680008AE891E01AC082E991E017C084E991E0FC
:1026900014C081E292E011C083E292E00EC084E2B5
:1026A00092E00BC085E292E008C086E292E005C0AD
:1026B00087E292E002C08AE292E0CF910C945D1131
:1026C000CF910895882309F44BC0823859F40E94B1
:1026D000E81081FF45C089E30E94101C0E94F01C95
:1026E00089E30CC0833871F40E94E81080FF38C081
:1026F00083E50E94101C0E94F01C83E50E94601C70
:102700000C94F01C843859F40E94E81082FF28C011
:1027100087E40E94101C0E94F01C87E4EFCF9CEF1E
:10272000980F913A58F390E2980F983050F48770D0
:1027300091E001C0990F8A95EAF7892F0E94BC1C8D
:10274000DFCF9BE5980F933020F480E090E00C946D
:102750004711885A853120F480E090E00C945D1197
:102760000895882321F00E94B61C0C94F01C089553
:10277000882321F00E94BC1C0C94F01C0895BF9289
:10278000CF92DF92EF92FF920F931F93CF93DF933D
:1027900000D000D000D0CDB7DEB76C0185E0F601E7
:1027A000DE01119601900D928A95E1F7F601838181
:1027B0009481892B09F4E6C2908181818F3F19F4BD
:1027C0009F3F09F4DFC2F601F280258122952F7028
:1027D00099838A8389819A812E830E94CF1B182F27
:1027E000B92E0E94CE1B0E94DE1AEB2DE295EF70EF
:1027F0004E2F50E0FA01E05AFF4F2E810C94992A97
:102800008B2D807F9B2D9F70092F882311F00295BF
:10281000007FFF2049F0002309F461C2802F0E944D
:10282000C91C0E94F01C5BC2812F0E94621300230E
:1028300009F4A8C2802F0E94CF1C26960FB6F894E8
:10284000DEBF0FBECDBFDF91CF911F910F91FF90E3
:10285000EF90DF90CF90BF900C94F01C8B2D807F79
:102860009B2D9F70092F803211F00295007F11235C
:1028700019F0113009F12AC0FF20B1F0802F222376
:1028800051F1213041F526960FB6F894DEBF0FBE08
:10289000CDBFDF91CF911F910F91FF90EF90DF900F
:1028A000CF90BF900C94D91C222319F0213009F449
:1028B00069C20E94DC1C2DC0FF20F1F0263008F018
:1028C00061C20E94B31C802329F023C0FF20F9F0CD
:1028D000211116C0802F26960FB6F894DEBF0FBECA
:1028E000CDBFDF91CF911F910F91FF90EF90DF90BF
:1028F000CF90BF900C94B113253008F043C209C0AB
:10290000F601858180FFEBC18F708583E3CF2111B4
:10291000FBC1802F62C18B2D86958695837019F03F
:102920008130D1F02FC2FF2021F0812F9B2D937099
:1029300002C080E090E026960FB6F894DEBF0FBE8E
:10294000CDBFDF91CF911F910F91FF90EF90DF905E
:10295000CF90BF900C944711FF2021F0812F9B2D29
:10296000937002C080E090E026960FB6F894DEBF28
:102970000FBECDBFDF91CF911F910F91FF90EF90D0
:10298000DF90CF90BF900C945D11812FFF2019F044
:102990000E94F92102C00E94612226960FB6F89487
:1029A000DEBF0FBECDBFDF91CF911F910F91FF9082
:1029B000EF90DF90CF90BF900C94E6228B2D837028
:1029C00009F075C0F110DEC1812F82958695877060
:1029D000880F880F912F9F70C92ED12CE12CF12CDC
:1029E000082E04C0CC0CDD1CEE1CFF1C0A94D2F790
:1029F00014FF12C00FE010E020E030E004C0000F30
:102A0000111F221F331F8A95D2F7C901B8016095A3
:102A100070958095909503C060E070E0CB014B2DE0
:102A20004695469543704230C1F060F56C297D298A
:102A30008E299F29413051F126960FB6F894DEBFBA
:102A40000FBECDBFDF91CF911F910F91FF90EF90FF
:102A5000DF90CF90BF900C94F31A6C297D298E29BA
:102A60009F2926960FB6F894DEBF0FBECDBFDF912B
:102A7000CF911F910F91FF90EF90DF90CF90BF907B
:102A80000C94051B0E94F31AC701B60126960FB6D7
:102A9000F894DEBF0FBECDBFDF91CF911F910F9194
:102AA000FF90EF90DF90CF90BF900C94E11AFF2041
:102AB00019F08B2D817001C08695882309F462C1BD
:102AC000812F829586958770880F880F912F9F7030
:102AD000C92ED12CE12CF12C082E04C0CC0CDD1C0D
:102AE000EE1CFF1C0A94D2F714FF12C00FE010E096
:102AF00020E030E004C0000F111F221F331F8A9511
:102B0000D2F7C901B801609570958095909503C082
:102B100060E070E0CB014B2D469546954370423006
:102B2000C1F060F56C297D298E299F29413051F132
:102B300026960FB6F894DEBF0FBECDBFDF91CF91C2
:102B40001F910F91FF90EF90DF90CF90BF900C946A
:102B5000AA1B6C297D298E299F2926960FB6F894E9
:102B6000DEBF0FBECDBFDF91CF911F910F91FF90C0
:102B7000EF90DF90CF90BF900C94BC1B0E94AA1BDB
:102B8000C701B60126960FB6F894DEBF0FBECDBFC3
:102B9000DF91CF911F910F91FF90EF90DF90CF9039
:102BA000BF900C94981B103F49F118F4103E48F464
:102BB00091C0123F09F453C0E8F1133F09F464C017
:102BC00089C01F708B2D8F71FF2021F00E94311B57
:102BD000812F81CE0E94521B812F26960FB6F8942A
:102BE000DEBF0FBECDBFDF91CF911F910F91FF9040
:102BF000EF90DF90CF90BF900C94B813FF20B1F00E
:102C0000253008F0BFC08B2D8F7126960FB6F89433
:102C1000DEBF0FBECDBFDF91CF911F910F91FF900F
:102C2000EF90DF90CF90BF900C94771B263008F088
:102C3000A9C0E9CFFF20A9F08B2D8F7126960FB682
:102C4000F894DEBF0FBECDBFDF91CF911F910F91E2
:102C5000FF90EF90DF90CF90BF900C94311BFF203E
:102C600059F38B2D8F7126960FB6F894DEBF0FBEE9
:102C7000CDBFDF91CF911F910F91FF90EF90DF902B
:102C8000CF90BF900C94521BFF2099F08B2D8F7129
:102C900026960FB6F894DEBF0FBECDBFDF91CF9161
:102CA0001F910F91FF90EF90DF90CF90BF900C9409
:102CB0001C1B26960FB6F894DEBF0FBECDBFDF916A
:102CC000CF911F910F91FF90EF90DF90CF90BF9029
:102CD0000C94171BFF20A9F0222309F4ADCF812FFC
:102CE00026960FB6F894DEBF0FBECDBFDF91CF9111
:102CF0001F910F91FF90EF90DF90CF90BF900C94B9
:102D00008F12222309F4ADCF812F26960FB6F894A7
:102D1000DEBF0FBECDBFDF91CF911F910F91FF900E
:102D2000EF90DF90CF90BF900C9462134B2D4F70BB
:102D3000612FC6010E948C1F26960FB6F894DEBF45
:102D40000FBECDBFDF91CF911F910F91FF90EF90FC
:102D5000DF90CF90BF900C941D1A4B2D4F70612FB8
:102D6000C60126960FB6F894DEBF0FBECDBFDF9129
:102D7000CF911F910F91FF90EF90DF90CF90BF9078
:102D80000C948F1F26960FB6F894DEBF0FBECDBFF2
:102D9000DF91CF911F910F91FF90EF90DF90CF9037
:102DA000BF9008950E94D61C0E94A51C0E94F01C92
:102DB0000E9418240E94E62280E090E00E944711C1
:102DC00080E090E00C945D110E94C61C0C94D21619
:102DD0000E94CF1B292F22952F702C3030F42A30DF
:102DE00048F42250223078F405C02C3041F02F30C6
:102DF00031F009C0803E48F0803F29F406C093FBC3
:102E0000882780F9089580E0089581E00895CF93A0
:102E1000DF9300D000D01F92CDB7DEB70F900F9098
:102E20000F900F900F90DF91CF910895CF93DF9384
:102E300000D000D000D0CDB7DEB726960FB6F894FC
:102E4000DEBF0FBECDBFDF91CF9108951F93CF930B
:102E5000DF93C0917A0116E080917B01C81799F049
:102E6000D0E01C9FF0011D9FF00D1124E458FE4F8F
:102E70004081518162817381848195810E941617FE
:102E80002196C770E9CFDF91CF911F9108954091AE
:102E9000AC015091AD016091AE017091AF01809194
:102EA000B0019091B1010C9416178091B1018295F7
:102EB0008F7009F054C08091AE01882309F44FC08F
:102EC00080917A01A0917B014091AF015091B001B6
:102ED0006091AC017091AD01B6E08A1709F43FC072
:102EE00090E041155105C1F17F3F11F46F3FA1F111
:102EF000B89FF001B99FF00D1124E458FE4F2181D5
:102F000027132AC02081261327C02281211124C023
:102F1000238134812417350710F421503109241BF3
:102F2000350B283C3105C0F42091B1012F70206190
:102F30002093B10126E0289FF001299FF00D112474
:102F4000EF57FE4F80818F70806180838CEA91E023
:102F50000E94BF130C94261701968770BECF089568
:102F6000CF92DF92EF92FF920F931F93CF93DF9355
:102F7000CDB7DEB762970FB6F894DEBF0FBECDBFF8
:102F80008C0185E0F801DE011D9601900D928A9575
:102F9000E1F7D8014C9111965C91119712966C91C2
:102FA0008091AF019091B001009709F475C1309103
:102FB000AC017091AD017F3F19F43F3F09F46CC142
:102FC000F801C380D480E090AE01EE2009F4BEC0C9
:102FD0002091B101C816D90628F0D601A81BB90B5B
:102FE000CD0104C0809590958C0D9D1DFF24F39418
:102FF000883C910578F0F12C207F09F0C4C07C2D2D
:10300000D98AC88A89890E9407178CEA91E00E94B0
:10301000BF13AFC0822F807F09F045C0571313C084
:10302000431311C061110FC02F7020612093B101B3
:103030000E9447178CEA91E00E94BF138091B10172
:10304000F80185832EC0CD2819F15F3F11F44F3F61
:10305000F9F0F62E61111CC080917A0120917B015C
:1030600036E0821709F45BC090E0389FF001399F89
:10307000F00D1124E458FE4F7181571306C0708182
:10308000471303C07281711103C001968770E9CFA5
:10309000F62E662309F41CC18091B10181608093F2
:1030A000B101F12C15C1571309C0431307C06111B9
:1030B00005C08091B101F8018583C8C04D875E8746
:1030C0008D859E856A8B0E94E8166A898823D1F1D6
:1030D0006623C1F12091B101822F82958F7090E01B
:1030E000029774F08091AC019091AD0198878F8325
:1030F0001986DB86CA862C87CE0107960E94BF13ED
:1031000086E0F801ACEAB1E001900D928A95E1F712
:103110000E9455170E944717FF24F394D9C04D878A
:103120005E878D859E850E94CF1B292F22952F704B
:10313000223008F0C1C09F7009F0BBC0805E8830AB
:1031400008F4C6C0C8010E94BF13E6CFC816D9064E
:1031500008F453C0F601E81BF90BCF01883C910538
:1031600008F450C0F12C7C2DD98AC88A89890E9424
:103170000717ECEAF1E086E0DF011D928A95E9F796
:103180000E944717A5C0571314C0431312C0611102
:1031900010C08091B101F8018583C8010E94BF135E
:1031A00086E0ECEAF1E0DF011D928A95E9F7FE2C5A
:1031B0008FC04D875E878D859E856A8B0E94E8163D
:1031C0006A89882309F4BECF662309F4BBCF209116
:1031D000B101822F82958F7090E002970CF490CF0E
:1031E0008091AC019091AD019A8389831B82DD822D
:1031F000CC822E83CE01019681CF809590958C0D47
:103200009D1DACCFF62E662309F49CCF571333C017
:10321000431331C02091B10120FD24C0822F82953B
:103220008F70482F50E041155105E1F0D8011596F7
:103230002C9315974F30510549F08F5F982F929539
:10324000907F822F8F70892B15968C93C8010E94D6
:10325000BF1386E0F801ACEAB1E001900D928A95C7
:10326000E1F78ECF86E0F801ACEAB1E001900D9273
:103270008A95E1F72DC04D875E878D859E850E94DA
:10328000E81681113DCF8091B10181608093B10139
:10329000C8010E94BF131CC0662309F453CF4D8799
:1032A0005E878D859E850E94E816882309F44ACFA3
:1032B00027CF811143CF0CC0243008F043CF9F703B
:1032C00009F43CCFD80115969C91907F09F036CF38
:1032D0008F2D62960FB6F894DEBF0FBECDBFDF9183
:1032E000CF911F910F91FF90EF90DF90CF900895B5
:1032F0001F93CF93DF93CDB7DEB72C970FB6F8941B
:10330000DEBF0FBECDBF4F83588769877A878B8713
:103310009C87CE0107960E94B017882371F08A859A
:103320009B85892B09F441C088858F3F09F065C0D2
:103330008F818F3F09F061C038C086E0FE0137966B
:10334000DE01119601900D928A95E1F76A857B85E1
:103350006115710551F1FF81E885EF3F11F4FF3FE1
:1033600021F120917B0130E0C901019687709927F6
:1033700040917A0150E08417950709F447C0F9831A
:10338000EA837D836C8396E0929FD001939FB00D7A
:103390001124A458BE4FFE01319601900D929A95CA
:1033A000E1F780937B010E94261716E080917A0155
:1033B00090917B018917B9F1189FC001112484589D
:1033C0009E4F0E94B017882371F1E0917A011E9FF1
:1033D000F0011124E458FE4F4081518162817381D4
:1033E000848195810E94161780917A0190E0019660
:1033F0008770992780937A01D9CF4F815885698545
:103400007A858B859C850E941617CFCF0E94E41683
:1034100010927B0110927A01ECEAF1E086E0DF0184
:103420001D928A95E9F72C960FB6F894DEBF0FBE71
:10343000CDBFDF91CF911F910895DF92EF92FF9260
:103440000F931F93CF93DF93FC01892B09F488C05E
:10345000E12CF12CDD24D394EF0121968491853762
:1034600009F460C058F4843708F04EC0843008F086
:1034700068C08130D1F0823071F172C0883709F4B0
:103480005BC050F4863709F453C0873709F068C031
:103490008E2D0E94C31C52C09CE7980F903708F0F5
:1034A0005FC08F770E9462134EC08F010E5F1F4F67
:1034B000FE01849190E2980F983050F48770FD2DB2
:1034C00001C0FF0F8A95EAF78F2F0E94C91C15C013
:1034D0000E948F1214C08F010E5F1F4FFE01849156
:1034E00090E2980F983068F48770FD2D01C0FF0FAF
:1034F0008A95EAF78F2F0E94CF1C0E94F01CE801EA
:1035000022C00E946213FBCFCF010296FE01C4913C
:10351000CC2361F0EFE9FFE03197F1F700C0000044
:10352000C150F6CFCF010296FE01F490EC010BC022
:103530000E94B31CE82E07C00E94C61C0E94F01C0B
:1035400002C00E948F128F2D882341F0EFE9FFE027
:103550003197F1F700C000008150F6CFFE017CCF1B
:10356000DF91CF911F910F91FF90EF90DF90089521
:103570006093B6017093B7018093B8019093B9013D
:103580000E94571D0C94D216CF92DF92EF92FF92B9
:103590006B017C010E941F09C092B201D092B3015D
:1035A000E092B401F092B501C701B6010E94581D26
:1035B000FF90EF90DF90CF900C94D21608950C946A
:1035C000B81A0F931F930091B6011091B701209183
:1035D000B8013091B901602B712B822B932B1F9175
:1035E0000F910C94B81A0F931F930091B60110918C
:1035F000B7012091B8013091B90160237123822372
:1036000093231F910F910C94B81A0F931F9300915D
:10361000B6011091B7012091B8013091B90160272E
:103620007127822793271F910F910C94B81A60E09D
:1036300070E0CB010C94C41A0F931F9341E050E04B
:1036400060E070E08A019B0104C0000F111F221F7F
:10365000331F8A95D2F7C901B8011F910F910C94BD
:10366000C41A0F931F9341E050E060E070E004C083
:10367000440F551F661F771F8A95D2F78091B201BC
:103680009091B301A091B401B091B5018A019B0161
:10369000082B192B2A2B3B2BC901B8011F910F9125
:1036A0000C94C41A0F931F9341E050E060E070E067
:1036B00004C0440F551F661F771F8A95D2F74095A7
:1036C0005095609570958091B2019091B301A09151
:1036D000B401B091B5018A019B01082319232A2363
:1036E0003B23C901B8011F910F910C94C41A0F9389
:1036F0001F9341E050E060E070E004C0440F551FAC
:10370000661F771F8A95D2F78091B2019091B3011D
:10371000A091B401B091B5018A019B010827192736
:103720002A273B27C901B8011F910F910C94C41A95
:103730000F931F930091B2011091B3012091B40136
:103740003091B501602B712B822B932B1F910F9120
:103750000C94C41A0F931F930091B2011091B301FE
:103760002091B4013091B50160237123822393230A
:103770001F910F910C94C41A0F931F930091B201E3
:103780001091B3012091B4013091B50160277127E8
:10379000822793271F910F910C94C41A0895CF92FA
:1037A000DF92EF92FF920F931F93CF93DF938C01E1
:1037B000C090B201D090B301E090B401F090B50197
:1037C0008091B6019091B701A091B801B091B90173
:1037D000C82AD92AEA2AFB2ACFE1D0E0D701C601BC
:1037E0000C2E04C0B695A795979587950A94D2F7A5
:1037F00080FF07C0B8018C2F0E94191F81309105EE
:1038000031F4219758F7B80180E00E94191FDF9129
:10381000CF911F910F91FF90EF90DF90CF9008957F
:1038200090910B01992379F190910C01992359F111
:10383000982F9695969596959F30A0F4E0910D015E
:10384000F0910E01E90FF11D877021E030E0A90130
:1038500002C0440F551F8A95E2F7CA019181892B56
:10386000818308959091CD0190FF29C01F928F937D
:103870008EEE94E09F938F930E944C070F900F90D1
:103880000F900F90089520910D0130910E01F901D4
:1038900032969FEF40E05191851789F09F3F19F4D0
:1038A000511101C0942F4F5F4E30A9F79F3F39F05F
:1038B000F901E90FF11D97FDFA95828308950895A6
:1038C00090910B01992381F190910C01992361F161
:1038D000982F9695969596959F30A8F4E0910D01B6
:1038E000F0910E01E90FF11D877021E030E0A90190
:1038F00002C0440F551F8A95E2F7CA018095918155
:103900008923818308959091CD0190FF1DC01F925E
:103910008F9380ED94E09F938F930E944C070F90BC
:103920000F900F900F90089520910D0130910E018E
:10393000F9013296205F3F4F9081891301C01082B8
:103940003196E217F307C1F7089581E090E0E09126
:103950000D01F0910E01E80FF91F108201968031E0
:103960009105A9F708958091CC0108959091CC011B
:10397000892B8093CC01089580959091CC01892367
:103980008093CC0108958093CC0108951092CC01CE
:1039900008959091CB01892B8093CB010895809558
:1039A0009091CB0189238093CB0108951092CB0194
:1039B00008958093BA0108951092BA0108958091F4
:1039C0000D0190910E01FC0131969C01205F3F4F4B
:1039D00080E0919191118F5FE217F307D1F708957D
:1039E000E0910D01F0910E018091CC018083E09176
:1039F0000D01F0910E0190818091CB01892B808384
:103A00008091BA01882361F0E0910D01F0910E01DF
:103A10009081892B80830E94DF1C81111092BA0152
:103A200080910D0190910E010C94F4109093390146
:103A30008093380108958295982F937344E0949F62
:103A4000900111248C7C86958695282B822F857574
:103A5000880F2A7A2695822B08951F93CF93DF93A0
:103A60001F92CDB7DEB799830E941B1D182F998135
:103A7000892F0E941B1D212F30E0322F2227A90100
:103A8000482BCA010F90DF91CF911F91089508959F
:103A9000CF93DF9300D000D01F92CDB7DEB70F9049
:103AA0000F900F900F900F90DF91CF910895089590
:103AB00008950C944D1208958091E201843021F113
:103AC0001092CE0120E488E190E00FB6F894A8951A
:103AD000809360000FBE2093600083B7817F846075
:103AE00083BF83B7816083BF7894889583B78E7FC7
:103AF00083BF0FB6F894A895809160008861809389
:103B00006000109260000FBE089508950C94851D0A
:103B1000CF930E94861D0E9496070E94851DC0E0DB
:103B20008C2F0E94CF08892B29F4CF5FC630C1F7B4
:103B300080E001C081E0CF9108950C94E4161F92BB
:103B40000F920FB60F9211248F939F93AF93BF9351
:103B50008091CE01811113C08091CF019091D0014D
:103B6000A091D101B091D2014196A11DB11D8093C8
:103B7000CF019093D001A093D101B093D201BF9116
:103B8000AF919F918F910F900FBE0F901F9018953E
:103B900082E084BD93E095BD9AEF97BD80936E005F
:103BA00008952FB7F8948091CF019091D001A09102
:103BB000D101B091D2012FBF08952FB7F894609131
:103BC000CF017091D0018091D1019091D2012FBF8E
:103BD0000895CF92DF92EF92FF920F931F932FB72A
:103BE000F8944091CF015091D0016091D101709132
:103BF000D2012FBF6A017B01EE24FF248C0120E05B
:103C000030E0C016D106E206F30610F44150510927
:103C10009A01281B390BC9011F910F91FF90EF905A
:103C2000DF90CF9008951F920F920FB60F9211243C
:103C30008F939F93AF93BF938091CF019091D001C9
:103C4000A091D101B091D2010196A11DB11D809327
:103C5000CF019093D001A093D101B093D201BF9135
:103C6000AF919F918F910F900FBE0F901F9018955D
:103C70000E94FC0DF8942FEF87EA91E621508040D6
:103C80009040E1F700C0000087E090EBDC018093FA
:103C9000EC019093ED01A093EE01B093EF019CE055
:103CA00088E10FB6F894A895809360000FBE9093BA
:103CB0006000FFCF8D3B50F4883A70F5853A18F5D7
:103CC0008430F8F4813009F46CC068C0883E98F400
:103CD000803EB8F48F3B09F061C00E94E4162FEFDC
:103CE00080E792E0215080409040E1F700C0000062
:103CF0000E94381E53C0803F08F450C090E0906589
:103D0000089590E00895853A09F44EC0863A09F482
:103D10004EC083E890E40895883A09F44BC0893A8C
:103D200009F44BC08A3A09F44BC08B3A09F44BC0F2
:103D30008C3A09F44BC08D3A09F44BC08E3A09F421
:103D40004BC08F3A09F44BC0813B09F44BC0803B18
:103D500009F44BC0823B09F44BC0833B09F44BC0D0
:103D6000843B09F44BC0853B09F44BC0863B09F406
:103D70004BC0873B09F44BC0883B09F44BC0893BDF
:103D800009F44BC08A3B09F44BC08B3B09F44BC090
:103D90008C3B09F44BC080E094E4089580E090E00F
:103DA000089581E090E0089581E890E4089582E824
:103DB00090E4089582EE94E4089589EE94E40895E1
:103DC0008AEE94E4089585EB94E4089586EB94E4F8
:103DD000089583EB94E4089584EB94E4089587EBCD
:103DE00094E408958CEC94E408958DEC94E40895A3
:103DF00083E895E408958AE895E4089582E995E4D6
:103E0000089584E995E4089581E296E4089583E2B3
:103E100096E4089584E296E4089585E296E4089590
:103E200086E296E4089587E296E408958AE296E4AD
:103E300008950E945507803EA8F4803C00F5813328
:103E400009F45CC038F4893209F452C08A3209F4AA
:103E50005BC05FC08933B1F08238A1F0853309F4CB
:103E600041C057C0833E41F128F4803E99F0823E24
:103E7000B9F04FC0863E31F1873E71F14AC00E94D1
:103E8000650708959091EB0190FD02C091FF41C03C
:103E900080EE3FC08091EB0180FFFACF89E339C00B
:103EA0008091EB0182FF0CC08091EB0184FF02C086
:103EB00080E02FC083EE2DC08091EB0182FFF4CF14
:103EC00082EE27C08091EB0183FF0AC08091EB0155
:103ED00084FDEECF87EE1DC08091EB0183FFF6CF0E
:103EE00086EE17C08091EB0185FF06C089E211C004
:103EF0008091EB0185FFFACF85E30BC08091EB0148
:103F000086FF06C08AE205C08091EB0186FFFACFEA
:103F100081E30E945A1E089580E090E0089508957C
:103F2000AF92BF92CF92DF92EF92FF920F931F93C7
:103F3000CF937C01C0E0CC24C394D12C8C2F0E9461
:103F4000CF085C0100E010E0C601002E02C0880F1F
:103F5000991F0A94E2F78A219B21892BA9F0602FEF
:103F60007C2F80E00E94191F8E159F0559F0292F84
:103F7000207E392F307C11F0203A31F490E0E816A1
:103F8000F90611F481E009C00F5F1F4F0F301105D2
:103F9000D9F6CF5FC63091F680E0CF911F910F9197
:103FA000FF90EF90DF90CF90BF90AF900895CF93A8
:103FB000DF93EC018CE290E00E94901F882329F0AF
:103FC000CE01DF91CF910C94901F80E0DF91CF91D3
:103FD0000895CF930E945121811102C00E94372180
:103FE00083E195E00E94B306C5E6C15049F00E9406
:103FF00096078FE39CE90197F1F700C00000F5CF29
:104000008CE095E00E94B30689E290E00E94D71F01
:1040100081112BC18AE290E00E94D71F81110E947A
:10402000372185E090E00E94D71F81110E94381E41
:104030000E945B1D0E945C218093CD0187E090E08F
:104040000E94D71F8823C1F18BE190E00E94D71F07
:10405000882351F08091CD0181FB222720F991E046
:10406000922790FB81F90FC08EE090E00E94D71F4D
:10407000882361F08091CD0182FB222720F991E015
:10408000922790FB82F98093CD0116C080E190E0E9
:104090000E94D71F9091CD01882341F093FB2227E6
:1040A00020F981E0822780FB93F904C0892F809555
:1040B00080FB90F99093CD018091CD010E94602109
:1040C0000E946E218093EB0180EE90E00E94D71F4A
:1040D000882341F08091EB01982F909590FB80F917
:1040E0008093EB0189E390E00E94D71F882359F069
:1040F0008091EB0181FB222720F991E0922790FB30
:1041000081F98093EB0182EE90E00E94D71F882313
:1041100059F08091EB0182FB222720F991E0922750
:1041200090FB82F98093EB0186EE90E00E94D71F0E
:10413000882359F08091EB0183FB222720F991E03D
:10414000922790FB83F98093EB0183EE90E00E942D
:10415000D71F882359F08091EB0184FB222720F997
:1041600091E0922790FB84F98093EB0185E390E046
:104170000E94D71F882359F08091EB0185FB2227ED
:1041800020F991E0922790FB85F98093EB0181E380
:1041900090E00E94D71F882359F08091EB0186FBA5
:1041A000222720F991E0922790FB86F98093EB017A
:1041B00081E190E00E94D71F882359F08091EB01A4
:1041C00087FB222720F991E0922790FB87F98093C3
:1041D000EB018091EB010E9472218091EB0187FB42
:1041E000882780F980930C0187E290E00E94D71F16
:1041F000C82F8EE190E00E94D71F8111C2608FE12D
:1042000090E00E94D71F8111C46080E290E00E947C
:10421000D71F8111C86081E290E00E94D71F8111F1
:10422000C06182E290E00E94D71F8111C06283E2E8
:1042300090E00E94D71F8111C06484E290E00E9448
:10424000D71F882311F0C06802C0CC2329F08C2F1F
:104250000E9469216C2F03C00E946521682F70E0C5
:1042600080E090E0CF910C94DF1ACF9108956DEE2D
:104270007EEF80E090E00E94CF2A60E082E090E054
:104280000E94C12A60E083E090E00E94C12A60E0C1
:1042900084E090E00E94C12A60E085E090E00C9408
:1042A000C12A80E090E00E94BB2A21E08D3E9E4F13
:1042B00009F020E0822F089582E090E00C94B32A68
:1042C000682F82E090E00C94C12A83E090E00C9487
:1042D000B32A682F83E090E00C94C12A84E090E038
:1042E0000C94B32A682F84E090E00C94C12A80914A
:1042F000D50180FF0BC06091120185E0689FB0017D
:10430000112475956795759567952BC081FF09C038
:104310006091120185E0689FB00111247595679541
:1043200020C082FF07C06091120185E0689FB00144
:10433000112417C09091D6019923D1F060911101F9
:10434000961788F72091120185E0289F900111248B
:10435000929FA001939F500D112470E0CA010E940A
:10436000852A6038710540F46115710519F406C09D
:1043700065E070E0862F08958FE7089581E0089545
:104380008091D50180FF08C06091100170E07595A3
:1043900067957595679521C081FF06C060911001F2
:1043A00070E07595679519C082FF04C06091100197
:1043B00070E010C09091D601992399F060910F019F
:1043C0009617A0F780911001899FC001112470E019
:1043D0000E94852A6038710540F46115710519F451
:1043E00006C061E070E0862F08958FE7089581E0B0
:1043F0000895803F21F40E947721819504C0813F78
:1044000029F40E9477218093D9010895823F21F4F5
:104410000E947721819504C0833F29F40E9477216F
:104420008093D8010895893F19F40E94C02105C0E6
:104430008A3F31F40E94C02181958093DA0108956A
:104440008B3F21F40E94C021819504C08C3F29F448
:104450000E94C0218093DB010895843F21F4809164
:10446000D701816017C0853F21F48091D701826018
:1044700011C0863F21F48091D70184600BC0873F33
:1044800021F48091D701886005C0883F31F4809184
:10449000D70180618093D70108958D3F21F48091E9
:1044A000D50181600BC08E3F21F48091D5018260DF
:1044B00005C08F3F29F48091D50184608093D50198
:1044C0000895803F39F48091D90187FF6CC0109224
:1044D000D90169C0813F29F48091D9011816BCF334
:1044E00062C09091D801823F29F497FF5CC010927E
:1044F000D80159C0833F19F41916CCF354C0893F31
:1045000041F48091DA0118160CF04DC01092DA01D6
:104510004AC08A3F29F48091DA0187FF44C0F6CF70
:104520008B3F39F48091DB0187FF3DC01092DB01A6
:104530003AC08C3F29F48091DB011816BCF333C0DC
:10454000843F21F48091D7018E7F17C0853F21F4ED
:104550008091D7018D7F11C0863F21F48091D701D2
:104560008B7F0BC0873F21F48091D701877F05C0E7
:10457000883F31F48091D7018F7E8093D70113C09B
:104580008D3F21F48091D5018E7F0BC08E3F21F4A9
:104590008091D5018D7F05C08F3F29F48091D50191
:1045A0008B7F8093D5018091D80181110EC08091BD
:1045B000D90181110AC08091DA01811106C0809170
:1045C000DB01811102C01092D60108958091CD01C6
:1045D00083FF7EC08FE495E00E94B3068091D701EF
:1045E0001F928F938AE495E09F938F930E944C07CC
:1045F00088E495E00E94B3068091D801282F082E08
:10460000000C330B3F938F9385E495E09F938F933A
:104610000E944C0783E495E00E94B3068091D90183
:10462000282F082E000C330B3F938F9380E495E0E6
:104630009F938F930E944C078EE395E00E94B306F0
:104640008091DA01282F082E000C330B3F938F93B3
:104650008BE395E09F938F930E944C0789E395E04D
:104660000E94B3068091DB01282F082E000C330B2B
:104670003F938F9386E395E09F938F930E944C071F
:1046800083E395E00E94B3068091D6011F928F9339
:1046900080E395E09F938F930E944C078EE295E014
:1046A0000E94B3068091D5011F928F938BE295E013
:1046B0009F938F930E944C0788E295E00E94B30677
:1046C0008DB79EB74C960FB6F8949EBF0FBE8DBFA8
:1046D00087ED91E00E943C110E94D11D9093D4017E
:1046E0008093D30108951F93CF93DF938091D301DB
:1046F0009091D4010E94E91DAC019091D6019923BB
:1047000021F02091130130E006C0209114018AE0CD
:10471000289F900111244217530708F485C0809107
:10472000D801C091D901D091DA011091DB0181113A
:1047300007C0C11175C0D11173C0111171C074C00F
:104740009F3F19F09F5F9093D601181624F40E94A2
:1047500077218093D8018091D80187FF05C00E94FE
:10476000772181958093D8011C1624F40E9477212B
:104770008093D9018091D90187FF05C00E947721DC
:1047800081958093D9016091D801662331F1C09160
:10479000D901CC2311F1062E000C770B880B990B55
:1047A0000E94802923E333E343E35FE30E94E4298B
:1047B0000E9448296093D8016C2FCC0F770B880B8F
:1047C000990B0E94802923E333E343E35FE30E94D4
:1047D000E4290E9448296093D9011D1624F40E94FF
:1047E000C0218093DA018091DA0187FF05C00E9421
:1047F000C02181958093DA01111624F40E94C02112
:104800008093DB018091DB0187FF05C00E94C021FE
:1048100081958093DB01DF91CF911F910C94E6226B
:104820009F3F09F08FCFA0CFDF91CF911F910895C7
:10483000E7EDF1E085E0DF011D928A95E9F710923E
:10484000D6011092D501089582E797E00E94B30641
:104850001F9281E08F931F9285E08F9384E297E00F
:104860009F938F930E944C070F900F900F900F9083
:104870000F900F9008958330E9F128F4813061F0B2
:10488000823009F10895853009F462C008F449C006
:10489000863009F474C0089580911401262F30E009
:1048A000280F311D2F3F310524F4680F6093140148
:1048B00003C08FEF80931401809114011F928F9396
:1048C0008DE596E072C080911301262F30E0280F0D
:1048D000311D2F3F310524F4680F6093130103C08D
:1048E0008FEF80931301809113011F928F938BE4BC
:1048F00096E05BC080911201262F30E0280F311D19
:104900002F3F310524F4680F6093120103C08FEF2D
:1049100080931201809112011F928F9388E396E099
:1049200044C080911101262F30E0280F311D2F3F08
:10493000310524F4680F6093110103C08FEF809359
:104940001101809111011F928F9383E296E02DC097
:1049500080911001262F30E0280F311D2F3F3105A7
:1049600024F4680F6093100103C08FEF809310014F
:10497000809110011F928F938AE096E016C080917B
:104980000F01262F30E0280F311D2F3F310524F471
:10499000680F60930F0103C08FEF80930F01809128
:1049A0000F011F928F938FEE95E09F938F930E943C
:1049B0004C070F900F900F900F900895833081F166
:1049C00028F4813059F08230D1F00895853009F40F
:1049D00049C0B8F1863009F456C008958091140199
:1049E000681720F4861B8093140102C010921401F2
:1049F000809114011F928F9380EE95E054C08091B6
:104A00001301681720F4861B8093130102C01092D3
:104A10001301809113011F928F938EEC95E043C098
:104A200080911201681720F4861B8093120102C046
:104A300010921201809112011F928F938BEB95E0DF
:104A400032C080911101681720F4861B80931101F8
:104A500002C010921101809111011F928F9386EA7A
:104A600095E021C080911001681720F4861B809387
:104A7000100102C010921001809110011F928F93BB
:104A80008DE895E010C080910F01681720F4861B17
:104A900080930F0102C010920F0180910F011F92AD
:104AA0008F9382E795E09F938F930E944C070F901E
:104AB0000F900F900F900895CF93C82F1F928F9350
:104AC00087E798E09F938F930E944C0781E090E0E6
:104AD000A0E0B0E0BC01CD0104C0660F771F881FC5
:104AE000991FCA95D2F70E94DF1A0F900F900F906E
:104AF0000F90CF910C94E416CF938B3109F4CBC176
:104B000008F049C08E3009F4DAC100F5873009F4A5
:104B1000A9C1A8F4863009F05AC28091CD01817FE5
:104B20008E7F8093CD018CE798E00E94B3068CEADB
:104B30009CE00E94B30681E08093DD0191C1883042
:104B400009F45BC08B3009F487C141C2813109F49B
:104B500026C220F4803109F4C6C139C2863109F475
:104B6000DDC1893109F033C280E29CE00E94B306C6
:104B700085EF9BE00E94B3068BEB9BE00E94B3069F
:104B80008EE89BE00E94B30689E49BE00E94B30696
:104B90008EE19BE063C1853309F413C268F4873268
:104BA00009F40FC228F48E3108F411C28D510CC2E1
:104BB000893209F406C20BC2833438F48A3308F010
:104BC00002C2883309F448C102C2833409F4F9C12E
:104BD000883409F0FCC10E94E4168BE99CE00E9435
:104BE000B3069FEF23ED80E3915020408040E1F732
:104BF00000C000000E94381E33C180EB9CE00E9480
:104C0000B3068BE79AE00E94B3060E9465211F92CB
:104C10008F9388E79AE09F938F930E944C0786E7D3
:104C20009AE00E94B3060E945C21C82F83E69AE0B6
:104C30000E94B3061F92CF938EE59AE09F938F93C5
:104C40000E944C078CE59AE00E94B30682E59AE048
:104C50000E94B3068C2F81701F928F938FE49AE08D
:104C60009F938F930E944C078DE49AE00E94B306B5
:104C700083E49AE00E94B306C1FB882780F91F9263
:104C80008F9380E49AE09F938F930E944C078EE36A
:104C90009AE00E94B30682E39AE00E94B306C2FB48
:104CA000882780F91F928F938FE29AE09F938F93CA
:104CB0000E944C078DE29AE00E94B30684E29AE0DB
:104CC0000E94B306C3FBCC27C0F91F92CF9381E2A9
:104CD0009AE09F938F930E944C078FE19AE00E9485
:104CE000B3060E946E21C82F8BE09AE00E94B306A3
:104CF0001F92CF9386E09AE09F938F930E944C0778
:104D000084E09AE00E94B3068BEE99E00E94B3061D
:104D10008C2F81701F928F9388EE99E09F938F93D1
:104D20000E944C078DB79EB780960FB6F8949EBF31
:104D30000FBE8DBF86EE99E00E94B3068FEC99E01E
:104D40000E94B306C1FB882780F91F928F938CECD9
:104D500099E09F938F930E944C078AEC99E00E9400
:104D6000B30688EB99E00E94B306C2FB882780F95E
:104D70001F928F9385EB99E09F938F930E944C072E
:104D800083EB99E00E94B30681EA99E00E94B306A2
:104D9000C3FB882780F91F928F938EE999E09F9338
:104DA0008F930E944C078CE999E00E94B30682E938
:104DB00099E00E94B306C4FB882780F91F928F9365
:104DC0008FE899E09F938F930E944C078DE899E0BC
:104DD0000E94B3068BE799E00E94B306C5FB8827C3
:104DE00080F91F928F9388E799E09F938F930E9499
:104DF0004C0786E799E00E94B3068AE599E00E9495
:104E0000B306C6FB882780F91F928F9387E599E048
:104E10009F938F930E944C0785E599E00E94B3060B
:104E20008DE499E00E94B306C7FBCC27C0F91F921E
:104E3000CF938AE499E09F938F930E944C0788E474
:104E400099E00E94B3068DB79EB74C960FB6F894C2
:104E50009EBF0FBE8DBF04C083EA98E00E94B306D8
:104E6000C1E0BAC08091CD01C82FC17080FF09C0D8
:104E70008EE89CE00E94B3068091CD01817F8E7FF9
:104E800047C082E89CE00E94B3068091CD0181601A
:104E90008093CD01E5CF9091CD0191FBCC27C0F956
:104EA00081E0C827892FC0FB81F98093CD01CC23F5
:104EB00019F085E79CE027C087E69CE0CFCF909172
:104EC000CD0192FBCC27C0F981E0C827892FC0FB18
:104ED00082F98093CD01CC2319F088E59CE013C0C2
:104EE00088E49CE0BBCF9091CD0193FBCC27C0F927
:104EF00081E0C827892FC0FB83F98093CD01CC23A3
:104F000051F08CE39CE00E94B3068091CD0181605A
:104F10008093CD0161C08FE29CE0A0CF80E19BE057
:104F20000E94B3060E94E8101F928F9386EF9AE0CA
:104F30009F938F930E944C0780910B011F928F9338
:104F40008FED9AE09F938F930E944C0780916601AA
:104F50001F928F938CEC9AE09F938F930E944C0743
:104F600080910C011F928F9389EB9AE09F938F930E
:104F70000E944C070E94DD1D9F938F937F936F9338
:104F800082EA9AE09F938F930E944C078DB79EB759
:104F900046960FB6F8949EBF0FBE8DBF61CF0E949C
:104FA000E416C0910C0181E0C827C0930C01CC230A
:104FB00029F088E99AE00E94B3060EC08DE89AE0D5
:104FC0004DCF80E001C089530E945C2549CF8BE81A
:104FD0009AE00E94B306C0E08C2FCF91089580E044
:104FE00008950C94EF27CF93C82F8091DD01813075
:104FF00071F020F0823009F44BC042C1E0910D0104
:10500000F0910E018081823209F03CC107C0E0912D
:105010000D01F0910E018081823261F48C2F0E948B
:10502000F127811104C08C2F0E947C252FC081E0C4
:1050300090E02CC08C2F0E94EF27811126C0C43134
:10504000E1F070F4CB3081F0C031D1F40E9424241F
:105050008FE698E00E94B30682E08093DD0115C0E0
:10506000C93259F0C83361F48CE798E00E94B30666
:1050700083E798E00E94B30608C01092DD0104C1E6
:105080008DE698E00E94B306FFC081E08170FEC00B
:10509000C43228F5CE3108F0C1C0CB30A1F1D0F434
:1050A000C73009F0D3C08EE18093140182E380936E
:1050B00013018AE08093120184E18093110188E05A
:1050C0008093100188E280930F0183E197E00E94B2
:1050D000B306BFC0C33149F1C431C1F0B7C0CB344E
:1050E00009F4A9C028F4C93289F0C83361F0AEC010
:1050F000C13509F49EC0C23509F499C0CE3409F017
:10510000A5C06AE09EC00E942424A3C08091DC0157
:10511000882319F01092DC019CC080E297E00E9485
:10512000B30681E08093DD01B1C08AEF96E00E9472
:10513000B30688EE96E00E94B306809114011F9298
:105140008F9385EE96E09F938F930E944C0783EE9A
:1051500096E00E94B30681ED96E00E94B30680912E
:1051600013011F928F938EEC96E09F938F930E9472
:105170004C078CEC96E00E94B3068DEB96E00E9403
:10518000B306809112011F928F938AEB96E09F9352
:105190008F930E944C0788EB96E00E94B30687EA43
:1051A00096E00E94B306809111011F928F9384EACA
:1051B00096E09F938F930E944C0782EA96E00E94AC
:1051C000B3068DE896E00E94B306809110011F920D
:1051D0008F938AE896E09F938F930E944C0788E80C
:1051E00096E00E94B30681E796E00E94B3068091A4
:1051F0000F011F928F938EE696E09F938F930E94EC
:105200004C078CE696E00E94B3068DB79EB7489691
:105210000FB6F8949EBF0FBE8DBF1BC0CE51EC2FB2
:10522000F0E0E25DFE4F80818093DC0112C061E01E
:1052300003C061E006C06AE08091DC010E943B246B
:1052400008C08091DC010E94DE2403C081E197E068
:1052500013C08091DC01882369F01F928F938BE04B
:1052600097E09F938F930E944C070F900F900F90A1
:105270000F9004C088E097E00E94B30681E006C06A
:105280001092DD0180E002C080E000CFCF91089550
:105290000E944F296894B1110C94DE2908950E9450
:1052A000C32988F09F5798F0B92F9927B751B0F0CC
:1052B000E1F0660F771F881F991F1AF0BA95C9F79A
:1052C00014C0B13091F00E94DD29B1E008950C9432
:1052D000DD29672F782F8827B85F39F0B93FCCF3E5
:1052E000869577956795B395D9F73EF49095809517
:1052F000709561957F4F8F4F9F4F0895E89409C037
:1053000097FB3EF490958095709561957F4F8F4FF8
:105310009F4F9923A9F0F92F96E9BB279395F6950E
:10532000879577956795B795F111F8CFFAF4BB0F8C
:1053300011F460FF1BC06F5F7F4F8F4F9F4F16C0F0
:10534000882311F096E911C0772321F09EE8872F7A
:10535000762F05C0662371F096E8862F70E060E036
:105360002AF09A95660F771F881FDAF7880F9695AF
:10537000879597F9089557FD9058440F551F59F098
:105380005F3F71F04795880F97FB991F61F09F3F32
:1053900079F087950895121613061406551FF2CF5B
:1053A0004695F1DF08C0161617061806991FF1CFAB
:1053B00086957105610508940895E894BB276627D2
:1053C0007727CB0197F908950E94F7290C94682A52
:1053D0000E945A2A38F00E94612A20F0952311F089
:1053E0000C94512A0C94572A11240C94DE290E9403
:1053F000BB2970F3959FC1F3950F50E0551F629F35
:10540000F001729FBB27F00DB11D639FAA27F00D1D
:10541000B11DAA1F649F6627B00DA11D661F829F44
:105420002227B00DA11D621F739FB00DA11D621F29
:10543000839FA00D611D221F749F3327A00D611D46
:10544000231F849F600D211D822F762F6A2F112428
:105450009F5750409AF0F1F088234AF0EE0FFF1F5B
:10546000BB1F661F771F881F91505040A9F79E3FB2
:10547000510580F00C94512A0C94DE295F3FE4F32F
:10548000983ED4F3869577956795B795F795E79508
:105490009F5FC1F7FE2B880F911D9695879597F911
:1054A000089597F99F6780E870E060E008959FEFA6
:1054B00080EC089500240A941616170618060906AB
:1054C000089500240A94121613061406050608957A
:1054D000092E0394000C11F4882352F0BB0F40F402
:1054E000BF2B11F460FF04C06F5F7F4F8F4F9F4F42
:1054F0000895991B79E004C0991F961708F0961B30
:10550000881F7A95C9F78095089597FB072E16F4A2
:10551000009407D077FD09D00E949F2A07FC05D090
:105520003EF4909581959F4F0895709561957F4FBA
:105530000895EE0FFF1F0590F491E02D0994AA1B2A
:10554000BB1B51E107C0AA1FBB1FA617B70710F06E
:10555000A61BB70B881F991F5A95A9F780959095A0
:10556000BC01CD010895F999FECF92BD81BDF89A95
:10557000992780B50895A8E1B0E042E050E00C948E
:10558000D62A262FF999FECF1FBA92BD81BD20BD24
:105590000FB6F894FA9AF99A0FBE019608950E94F0
:1055A000C12A272F0C94C22ADC01CB01FC01F999F6
:1055B000FECF06C0F2BDE1BDF89A319600B40D925F
:0C55C00041505040B8F70895F894FFCF18
:1055CC000527091A0AF509C1098D090101BB012832
:1055DC0008140A321E404D3622396B041E04E803AF
:1055EC00C6038D030003190332034B036B03010243
:0855FC0003040506070809007D
:00000001FF
